:020000040800F2
:10000000C83F0120516500085D9B0008699B0008FE
:10001000799B0008899B0008999B0008000000005C
:1000200000000000000000000000000001240108A2
:10003000A99B000800000000D52401082D25010817
:10004000C1650008C1650008C1650008C1650008F8
:10005000C1650008C1650008C1650008C1650008E8
:10006000C1650008C1650008C1650008C1650008D8
:10007000C1650008C1650008C1650008C1650008C8
:10008000C1650008C1650008C1650008C1650008B8
:10009000C1650008C1650008C1650008C1650008A8
:1000A000C1650008C1650008C1650008C165000898
:1000B000C1650008C1650008C1650008C165000888
:1000C000C1650008C1650008C1650008C165000878
:1000D000C1650008C1650008C1650008C165000868
:1000E000C1650008C1650008C1650008C165000858
:1000F000C1650008C1650008C1650008C165000848
:10010000C1650008059C0008C1650008C1650008BC
:10011000C1650008C1650008C1650008C165000827
:10012000C1650008C1650008C1650008119C000890
:10013000C1650008B59B0008C1650008C1650008DD
:10014000C1650008C1650008C1650008C1650008F7
:10015000C1650008C1650008C1650008C1650008E7
:10016000C1650008C1650008C1650008C1650008D7
:10017000C1650008C1650008C1650008C1650008C7
:10018000C1650008C165000880B586B000AF786021
:100190000023FB600DF042FC334B1B68002B01D1A8
:1001A00000F08CF87B68002B0DD010237A68134484
:1001B0007B607B6803F00703002B04D07B6823F08F
:1001C000070308337B607B68002B45D04FF4204346
:1001D0007A689A4240D2254B3B61244B1B687B6175
:1001E00004E07B693B617B691B687B617B695A68C2
:1001F0007B689A4203D27B691B68002BF1D11A4BB2
:100200001B687A699A4227D03B691A681023134405
:10021000FB607B691A683B691A607B695A687B6876
:10022000D21A10235B009A420FD97A697B68134473
:10023000BB607B695A687B68D21ABB685A607B696D
:100240007A685A60B86800F081F8094B1A687B69CF
:100250005B68D21A064B1A600DF0EEFBFB6818467D
:100260001837BD4680BD00BF58A9002050A9002006
:100270000000002080B584B000AF78607B68FB6030
:100280007B68002B14D010235B42FA681344FB6098
:10029000FB68BB600DF0C2FBBB685A68064B1B686D
:1002A0001A44054B1A60B86800F050F80DF0C4FB12
:1002B0001037BD4680BD00BF0000002080B483B071
:1002C00000AF1E4B1E4A1A601C4B00225A604FF4AE
:1002D00020421B4B13447B6010235B427A6813441B
:1002E0007B60184B7A681A60164B1B6803F0070393
:1002F000002B04D04FF0BF0080F31188FEE7114BB4
:100300001B6800225A600F4B1B6800221A600C4BBE
:100310003B604FF420421023D21A3B685A60094BCD
:100320001A683B681A60084B1A681023D21A064BE9
:100330001A600C37BD465DF8047B704750A9002059
:100340005009002058A900200000002080B485B08A
:1003500000AF7860274BFB6002E0FB681B68FB6026
:10036000FB681A687B689A42F7D3FB68BB60FB683E
:100370005B68BA681A447B689A4208D1FB685A687D
:100380007B685B681A44FB685A60FB687B607B682B
:10039000BB607B685B68BA681A44FB681B689A425A
:1003A00018D1FB681A68144B1B689A420DD07B6801
:1003B0005A68FB681B685B681A447B685A60FB6874
:1003C0001B681A687B681A6008E00B4B1A687B6828
:1003D0001A6003E0FB681A687B681A60FA687B6839
:1003E0009A4202D0FB687A681A601437BD465DF8FD
:1003F000047B704750A9002058A9002080B483B026
:1004000000AF7860034B7A681A600C37BD465DF820
:10041000047B7047DC00274280B485B000AF786071
:10042000294B1A687B681B881344FB607A68FB6859
:100430009A421FD0FB681B79002B1BD1234B1B68F2
:10044000FA689A4216D0224B1A68FB689A4202D187
:100450001F4B7A681A60FB681A887B681A801A4BEF
:100460001A68FB681B8813447968174A12688A1A4D
:1004700092B25A80144B1A687B685B881344BB6045
:10048000BA687B689A421AD0BB681B79002B16D1D8
:100490000F4B1A687B689A4202D10D4BBA681A60FA
:1004A0007B681A88BB681A80074B1A687B681B88B0
:1004B0001344B968044A12688A1A92B25A801437EF
:1004C000BD465DF8047B704774BD002078BD0020F8
:1004D0007CBD002080B582B000AF1A4B033323F0FF
:1004E00003031A46184B1A60174B1B687B607B6826
:1004F0004FF4A0521A807B6800225A807B68002249
:100500001A71114B1B6803F5A052104B1A600F4B68
:100510001B6801221A710D4B1B684FF4A0521A8000
:100520000A4B1B684FF4A0525A80012010F000FFC4
:100530000246074B1A60044B1A68064B1A600837CC
:10054000BD4680BD60A9002074BD002078BD00209C
:1005500080BD00207CBD002080B584B000AF7860F5
:100560007B68002B00D12AE0164B1B687A689A4200
:10057000144B1B687A689A4204D3134B1B687A6841
:100580009A4200D31BE0114B1B681846002110F063
:10059000F7FE7B68083BFB60FB6800221A710C4B7E
:1005A0001B68FA689A4202D2094BFA681A60F86826
:1005B000FFF732FF054B1B68184610F019FF103784
:1005C000BD4680BD74BD002078BD002080BD0020E8
:1005D0007CBD002080B586B000AF78600B467B8084
:1005E0007B8803339BB223F003037B807B880B2B38
:1005F00001D80C237B807B88B3F5A05F01D9002351
:10060000A5E0554B1B687A689A42534B1B687A6881
:100610009A4204D3514B1B687A689A4201D37B6893
:1006200095E07B68083B7B617A694B4B1B68D31A6A
:100630007B827B691A887B8AD31A9BB2083B3B82F8
:100640007A883B8A9A4201D9002380E07A883B8AE3
:100650009A4201D17B687AE0414B1B681846002121
:1006600010F08EFE3C4B1A687B691B881344FB60BC
:10067000FB681B79002B32D1FB681B887B817A8A4F
:100680007B8813449BB208333B81364B1A68FB6866
:100690009A4205D1304B1A683B891A44314B1A6093
:1006A0002D4B1A683B891344FB60FB6800221A71CA
:1006B000FB687A891A80FB687A8A5A807B693A8952
:1006C0001A80FB681B88B3F5A05F07D0224B1A681D
:1006D000FB681B8813443A895A8032E031E07B88FA
:1006E00003F114023B8A9A422BD87A8A7B881344FE
:1006F0009BB208333B81184B1A683B891344FB605B
:10070000184B1B68FA689A4202D2164BFA681A60B4
:10071000FB6800221A717B691A88FB681A80FB68E3
:100720007A8A5A807B693A891A80FB681B88B3F5FC
:10073000A05F06D0084B1A68FB681B8813443A89EF
:100740005A80074B1B68184610F052FE7B6818460B
:100750001837BD4680BD00BF74BD002078BD0020A5
:1007600080BD00207CBD002080B586B000AF034670
:10077000FB80FB88002B01D100239FE0FB88033323
:100780009BB223F00303FB80FB880B2B01D80C23C7
:10079000FB80FB88B3F5A05F01D900238EE0494BB5
:1007A0001B681846002110F0EBFD474B1B681A46EA
:1007B000464B1B68D31AFB8274E0444B1A68FB8AD1
:1007C00013443B613B691B79002B65D13B691B8856
:1007D0001A46FB8AD31AA3F10802FB889A425BD31C
:1007E0003B691B881A46FB8AD31AA3F10802FB88CF
:1007F00014339A4227D3FA8AFB8813449BB20833F6
:10080000FB81324B1A68FB891344BB60BB68002232
:100810001A713B691A88BB681A80BB68FA8A5A80C9
:100820003B69FA891A803B6901221A71BB681B88EF
:10083000B3F5A05F0AD0254B1A68BB681B88134428
:10084000FA895A8002E03B6901221A711E4B1B682B
:100850003A699A4218D107E01C4B1A681A4B1B6878
:100860001B881A44184B1A60174B1B681B79002B06
:1008700005D0154B1A68164B1B689A42ECD1124BE7
:100880001A68134B1B689A420E4B1B68184610F0EF
:10089000AFFD3B69083311E00C4B1A68FB8A134427
:1008A0001B88FB82FA8AFB88C3F5A0539A4284DB3B
:1008B000044B1B68184610F09BFD002318461837A0
:1008C000BD4680BD80BD00207CBD002074BD0020E1
:1008D00078BD002080B582B000AF02460B46FA809A
:1008E000BB80FB884E20194600F008F8BB884F20DB
:1008F000194600F003F80837BD4680BD80B483B0C8
:1009000000AF02460B46FA71BB804FF0C043FA7944
:1009100092B21A80034BBA881A800C37BD465DF834
:10092000047B70470000106080B400AF4FF0C043FC
:1009300022221A80BD465DF8047B704780B483B0E4
:1009400000AF0346FB80044BFA881A800C37BD4683
:100950005DF8047B704700BF0000106080B483B076
:1009600000AF0346FB80FB889AB2034B1A800C371A
:10097000BD465DF8047B704788BD002080B400AFA1
:10098000034B1B681846BD465DF8047B704700BFEB
:1009900084BD002080B586B000AF0B463A600246A9
:1009A000FA80BB8000237B6100233B610023FB8135
:1009B000FB88FB81BA88FB8910461946FFF78AFF3E
:1009C00000237B6155E0FFF7AFFF00233B613DE073
:1009D0007B695B003A6813441B881A462A4B1B68E4
:1009E00099882A4BA3FB0103DB089BB2DB00802123
:1009F00099403B6941FA03F31340002B04D1224B89
:100A00001B689B880C2B11D97B695B003A681344E7
:100A10001B881A463B6942FA03F303F00103002BDB
:100A20000BD1194B1B689B880C2B06D9184B1B88C4
:100A30009BB21846FFF782FF05E0164B1B889BB25E
:100A40001846FFF77BFF3B6901333B610E4B1B6888
:100A50009B881A463B699A42BAD8FB890133FB81CD
:100A6000BA88FB8910461946FFF734FF7B690133CA
:100A70007B61054B1B68DB881A467B699A42A2D8CA
:100A80001837BD4680BD00BF84BD0020ABAAAAAA0E
:100A90002400002088BD002080B582B000AF13463E
:100AA0000246FA800A46BA80FB70FB78203BFB7056
:100AB0000A4B1B681A68FB7808490968C98801FB5A
:100AC00003F35B001344F988BA88084611461A46B6
:100AD000FFF760FF0837BD4680BD00BF84BD002022
:100AE00080B584B000AF03463960FB800023FB81F2
:100AF00016E03B681B78F988FA89084611461A46C1
:100B0000FFF7CAFF0A4B1B689A88FB891344FB81D5
:100B1000FB89B3F5A07F00D306E03B6801333B605F
:100B20003B681B78002BE4D11037BD4680BD00BF69
:100B300084BD002080B500AF4FF40060012108F0B3
:100B400055FF4FF40060002108F050FF80BD00BF4A
:100B500080B485B000AF78600023FB60124B5B6807
:100B6000FB60FB6823F4FD4323F07F03FB607B689D
:100B70001B7D1A467B689B681A437B685B681A4337
:100B80007B68DB681A437B681B681A437B681B69B8
:100B90001343FA681343FB60034BFA685A60143737
:100BA000BD465DF8047B7047002C014080B483B0E3
:100BB00000AF0346FB71044BFA791A600C37BD464F
:100BC0005DF8047B704700BFA080254280B483B0ED
:100BD00000AF7860034B7A681A600C37BD465DF849
:100BE000047B7047002C014080B400AF044B1B68AD
:100BF00003F003031846BD465DF8047B704700BF51
:100C0000002C014080B485B000AF78600023FB6009
:100C1000114B7A6812689A600F4BDB68FB60FB68C7
:100C200023F4FF6323F00703FB607B685A687B684B
:100C30009B681A437B68DB681A437B681B69134314
:100C4000FA681343FB60044BFA68DA601437BD4658
:100C50005DF8047B704700BF002C014080B400AFFA
:100C6000034B1B69DBB21846BD465DF8047B704739
:100C7000002C014080B485B000AF78600023FB6099
:100C80007A68054B1344FB60FB681B6818461437F1
:100C9000BD465DF8047B7047142C014080B485B0DC
:100CA00000AF78600023FB60124B7A6812685A62CA
:100CB000104B7A6852689A620E4BDB6AFB60FB68E5
:100CC00023F0F703FB607B689A687B68DB681A4354
:100CD0007B681B691A437B685B691343FA6813439B
:100CE000FB60044BFA68DA621437BD465DF8047B9A
:100CF000704700BF002C014080B400AF034BD3F815
:100D000080301846BD465DF8047B7047002C0140DA
:100D100080B483B000AF0346FB71044BFA791A60CC
:100D20000C37BD465DF8047B704700BF8C852542BB
:100D300080B483B000AF78600B46FB70FB78002B6B
:100D400006D0094B084AD16B7A680A43DA6306E099
:100D5000054B054AD16B7A68D2430A40DA630C37F7
:100D6000BD465DF8047B7047002C014080B485B01F
:100D700000AF78600023FB73084B5A6B7B6813400D
:100D8000002B02D00123FB7301E00023FB73FB7BEC
:100D900018461437BD465DF8047B7047002C0140AF
:100DA00080B483B000AF7860034B7A689A630C37E5
:100DB000BD465DF8047B7047002C014080B485B0CF
:100DC00000AF78600023FB73084B5A6B7B681340BD
:100DD000002B02D00123FB7301E00023FB73FB7B9C
:100DE00018461437BD465DF8047B7047002C01405F
:100DF00080B483B000AF7860034B7A689A630C3795
:100E0000BD465DF8047B7047002C014080B500AF03
:100E100000F0F0FD074B1B780133DAB2054B1A7076
:100E2000044B1B7803F00103002B01D000F000FC01
:100E300080BD00BF8CBD002080B584B000AF78605D
:100E40007B681B7C072B00F28B8001A252F823F0F9
:100E5000710E0008D30E0008ED0E0008070F000801
:100E6000250F0008610F0008610F0008430F0008FC
:100E70000023FB73454B1A687B689A4205D1434BAC
:100E80001B68DA68414B1A6019E0404B1A68404B06
:100E90001A6010E03E4B1B68DA687B689A4205D105
:100EA0003B4B1B687A68D268DA6008E0384B1B68F5
:100EB000DA68374B1A60364B1B68002BEAD17B6827
:100EC0000022DA600220796803F042F800237B6098
:100ED0004BE00023FB732F48796800F0C9FF032023
:100EE000796803F035F800237B603EE00023FB7354
:100EF0002948796800F0BCFF0220796803F028F8DF
:100F000000237B6031E07868012117F007F9034680
:100F1000FB7397F90F30002B03D17B6805221A74FD
:100F200023E022E07868012117F0F8F80346FB730C
:100F300097F90F30002B03D17B6805221A7414E057
:100F400013E07868012117F0E9F80346FB7397F97D
:100F50000F30002B03D17B6809221A7405E004E0EE
:100F60000023FB7300237B6000BF7B68002B06D04F
:100F700097F90F30002B02D1786817F02BFCFB7B20
:100F80005BB218461037BD4680BD00BFCCF30020D1
:100F9000C8F30020C4F30020BCF3002080B58CB05F
:100FA00002AF786039607B681B7C0A2B08D130481F
:100FB000796800F05DFF0220796802F0C9FF54E013
:100FC0007B689B6D7B627B685B6A3B627B68002B06
:100FD00002D07B681B6800E00023FB607B68043361
:100FE000002B02D07B685B6800E000233B617B68DC
:100FF0001B8BFB837B681B8CBB837B68D3F8903097
:10100000BB617B685B697B611A48796800F030FFDF
:101010007B689B6F002B04D07B689B6F184600F0A9
:1010200041FD7B685B6F002B04D07B685B6F1846CB
:1010300000F038FD0220796802F08AFFBB69002BBE
:1010400004D0BB6978696FF0040198473B68002BB6
:101050000BD007F10C0207F11003F98B0091B98B4B
:101060000191786A396A17F0BFFD2837BD4680BD07
:10107000D0F30020BCF3002080B586B000AFF8604C
:10108000B9601346FB80FB681B7C002B01D0F32367
:10109000A4E0FB88002B03D100F0B8F90346FB80E5
:1010A000514B1B687B611DE07B691B8BFA889A4260
:1010B00015D17B69002B10D07B691B68002B0CD0ED
:1010C000BB68002B09D0BB681B68002B05D07B696F
:1010D0001A68BB681B689A4201D1F5237EE07B69E0
:1010E000DB687B617B69002BDED1404B1B687B6139
:1010F0001DE07B691B8BFA889A4215D17B69002B16
:1011000010D07B691B68002B0CD0BB68002B09D06A
:10111000BB681B68002B05D07B691A68BB681B681D
:101120009A4201D1F52359E07B69DB687B617B69D9
:10113000002BDED12E4B1B687B611DE07B691B8B76
:10114000FA889A4215D17B69002B10D07B691B6805
:10115000002B0CD0BB68002B09D0BB681B68002B90
:1011600005D07B691A68BB681B689A4201D1F523D8
:1011700034E07B69DB687B617B69002BDED11D4B32
:101180001B687B610FE07B691B8BFA889A4207D151
:101190007B691A68BB681B689A4201D1F5231DE080
:1011A0007B69DB687B617B69002BECD1BB68002B22
:1011B00007D0BB681B68002B03D0FB68BA681068B7
:1011C0001860FB68FA881A83094B1A68FB68DA60B2
:1011D000074BFA681A6004F0B3FE00235BB21846AE
:1011E0001837BD4680BD00BFC4F30020BCF300200B
:1011F000CCF30020D0F3002080B485B000AFF860BD
:10120000B9601346FB71FB235BB218461437BD4629
:101210005DF8047B704700BF80B584B000AF786094
:101220000B46FB707B681B7C002B01D000236EE01B
:101230007B681B7C012B01D17B6868E0032002F0F6
:1012400065FEF860FB68002B01D100235FE07B683E
:101250005A69FB685A617B681A8BFB681A83FB68C2
:1012600001221A747B681A89FB681A81FB681B8942
:1012700043F002039AB2FB681A817B68DA7AFB6852
:10128000DA727B689A7AFB689A727B68002B02D0CC
:101290007B681B6800E00023FA6813601E4B1A6825
:1012A0007B689A4205D11C4B1B68DA681A4B1A609E
:1012B00019E0194B1A68194B1A6010E0174B1B689C
:1012C000DA687B689A4205D1144B1B687A68D26849
:1012D000DA6008E0114B1B68DA68104B1A600F4B9C
:1012E0001B68002BEAD17B680022DA600220796853
:1012F00002F02EFEFB680A4ADA610A4B1A68FB68A4
:10130000DA60084BFA681A6004F01AFEFB681846A7
:101310001037BD4680BD00BFCCF30020C8F30020CD
:10132000F9110008C4F3002080B485B000AF7860E4
:101330007B685A6A7B681B8D1344FB607B68DA6AA2
:101340007B68198F40F2B453994202D87B681B8F97
:1013500001E040F2B4531344FA68D31A002B08DBBF
:101360007B681A8D7B685A857B68DB6AFA68D31ABA
:1013700015E07B685A6A7B68DB6AD31A002B03DDB1
:101380007B6800225A8509E07B68DB6A9AB27B6839
:101390005B6A9BB2D31A9AB27B685A8500231846BF
:1013A0001437BD465DF8047B704700BF80B584B03C
:1013B00000AF78600B467B807B681A8D7B88134476
:1013C0009AB27B681A857B681A8D40F668339A4218
:1013D00003D97B6840F668321A857868FFF7A4FF66
:1013E0000346FB60FA6840F2D9239A420BDD7B6822
:1013F00093F8223043F00203DAB27B6883F82220AC
:10140000786817F0E7F91037BD4680BD80B483B027
:1014100000AF254B1B8801339AB2234B1A80224B15
:101420001B889BB21BB2002B03DA1F4B4FF4805278
:101430001A801E4B1B687B6009E07B681A8B1A4B75
:101440001B889A4200D1E4E77B68DB687B607B689D
:10145000002BF2D1164B1B687B6009E07B681A8B6E
:10146000114B1B889A4200D1D3E77B68DB687B6015
:101470007B68002BF2D10F4B1B687B6009E07B6817
:101480001A8B094B1B889A4200D1C2E77B68DB6844
:101490007B607B68002BF2D1034B1B8818460C370E
:1014A000BD465DF8047B704754000020BCF300206B
:1014B000D0F30020C4F3002080B588B002AFF860FC
:1014C000B9603B601346FB80FB681B7C002B01D09E
:1014D000F323A1E0BB68002B0CD0FB68BA6804338F
:1014E00010681860FB68FA881A84FB681B8B002B55
:1014F00008D101E0F7238FE0FFF788FF03461A4683
:10150000FB681A8300F00AFD7861FB6800225A62CA
:10151000FB687A699A657B695A1EFB68DA647B69A5
:101520005A1EFB689A66FB6840F668321A85FB68AB
:1015300040F668325A85FB685A6AFB68DA62FB68D3
:1015400040F66832A3F85C20FB684FF406721A87F5
:10155000FB681B8F1846B96800F0F4FC03461A4676
:10156000FB681A87FB680122A3F85220FB681B8FD7
:101570001A46920013445B009AB2FB68A3F8542009
:10158000FB6802221A74FB683A68C3F88820254B6E
:101590001A68FB689A4205D1224B1B68DA68214B16
:1015A0001A6019E01F4B1A681F4B1A6010E01E4B9F
:1015B0001B68DA68FB689A4205D11B4B1B68FA6806
:1015C000D268DA6008E0184B1B68DA68164B1A60BC
:1015D000154B1B68002BEAD1FB680022DA60134B25
:1015E0001A68FB68DA60114BFA681A6004F0A8FC0C
:1015F0000023009301230193F868002100220223B5
:1016000016F0D2FD0346FB7497F91330002B02D17C
:10161000F86817F0DFF8FB7C5BB218461837BD4658
:1016200080BD00BFCCF30020C8F30020BCF3002035
:10163000B0B588B002AF00237B73964B1B685A1C71
:10164000944B1A6000233B61934B1B687B618DE1D7
:101650000023FB730023BB737B691B7C022B08D127
:101660007B6993F84A30062B03D1FB7B0133FB7374
:1016700090E07B6993F84A300C2B03D1FB7B01335C
:10168000FB7387E07B6993F89C30002B26D07B6945
:10169000D3F898305A1C7B69C3F898207B69D3F83B
:1016A00098207B6993F89C30013B7C49CB5C9A4243
:1016B00070D37B690022C3F898207B6993F89C3033
:1016C000062B07D87B6993F89C300133DAB27B692B
:1016D00083F89C20786917F0F5FB5BE07B69DB8E73
:1016E0001BB2002B05DB7B69DB8E01339AB27B6971
:1016F000DA867B699B6F002B4CD07B69DA8E7B6925
:10170000B3F8483012B21BB29A4243DB7B691B7CB0
:10171000022B16D07B69B3F844301BB2DB109BB2AE
:101720001AB27B69B3F846301BB21A447B6993F84E
:101730004A305B49CB5C02FA03F39AB27B69A3F8A7
:1017400048207B690022DA867B69B3F85C207B69DC
:10175000B3F852309A4238BF13467B817B895B08CD
:101760009AB27B69A3F854207B69B3F854207B6953
:101770001B8F9A4206D27B691B8F5B009AB27B69F2
:10178000A3F854207B691A8F7B69A3F852207869EB
:1017900017F0A2FA7B691B7C062B09D13D4B1A6816
:1017A0007B691B6BD31A282B02D9FB7B0133FB739C
:1017B0007B691B8903F00803002B40D07B691B7CED
:1017C000042B03D07B691B7C072B38D1314B1A6863
:1017D0007B691B6BD21A7B69D3F8943003F5242301
:1017E00003F6B8432F49A1FB03035B099A4206D9CC
:1017F000FB7B0133FB73BB7B0133BB731FE0254BCA
:101800001A687B691B6BD21A7B69D3F894107B69C9
:1018100093F89D30244800FB03F31944214BA3FBAC
:1018200001035B099A420AD9786917F01DFB7B69AD
:1018300093F89D300133DAB27B6983F89D207B6990
:101840001B7C032B09D1134B1A687B691B6BD31AC2
:10185000282B02D9FB7B0133FB737B691B7C092B93
:1018600009D10C4B1A687B691B6BD31AF02B02D978
:10187000FB7B0133FB73FB7B002B45D0786900F0C9
:10188000C7FA3B69002B11D07B69DA683B69DA60E3
:1018900010E000BFC0F30020BCF3002048FE0108A8
:1018A00038FE0108D34D6210F82401007B69DA6824
:1018B0004D4B1A607B69D3F89030002B08D07B69C0
:1018C000D3F890307A69526910466FF00401984756
:1018D000BB7B002B0ED07B69986D7B69596A7A6956
:1018E0007B6904337C69258B7C69248C0095019489
:1018F00017F07AF97B69DB687B600220796902F076
:1019000027FB7B687B6131E07B6993F834300133DE
:10191000DAB27B6983F834207B6993F834207B69E1
:1019200093F835309A421CD37B69002283F8342027
:101930007B69D3F88C30002B0AD07B69D3F88C30CC
:101940007A69526910467969984703467B7301E0CA
:1019500000237B7397F90D30002B02D1786916F0C4
:1019600039FF7B693B617B69DB687B617B69002BAD
:101970007FF46EAE00233B611C4B1B687B612CE047
:101980000023FB731A4B1A687B691B6BD31AF02B6D
:1019900002D9FB7B0133FB73FB7B002B18D07869EA
:1019A00000F036FA3B69002B04D07B69DA683B69AA
:1019B000DA6003E07B69DA680C4B1A607B69DB68EC
:1019C0007B600220796902F0C3FA7B687B6104E0E6
:1019D0007B693B617B69DB687B617B69002BCFD1D5
:1019E0001837BD46B0BD00BFBCF30020D0F30020C7
:1019F000C0F3002090B583B000AF294B1B687B601B
:101A000047E07B68DB6F002B24D07B68D3F8843001
:101A1000002B0ED07B68D3F884407B685A697B68C2
:101A2000DB6F104679681A460023A0470346FB7017
:101A300009E07B68DB6F002079681A46002300F01C
:101A40006BF80346FB7097F90330002B02D17B68DB
:101A50000022DA677B6893F8223003F00103002B41
:101A600014D07B6893F8223043F00203DAB27B682B
:101A700083F82220786816F0ADFE7B6893F8223058
:101A800023F00303DAB27B6883F822207B68DB68EB
:101A90007B607B68002BB4D10C37BD4690BD00BF86
:101AA000BCF3002080B584B000AF78600023FB73E6
:101AB0000CE07B681B68BB60786800F00FF8034699
:101AC0001A46FB7B1344FB73BB687B607B68002B6F
:101AD000EFD1FB7B18461037BD4680BD80B584B082
:101AE00000AF78600023FB737B68002B0ED07B680F
:101AF0005B68002B06D07B685B6818460DF09EFC87
:101B00000346FB730420796802F022FAFB7B184637
:101B10001037BD4680BD00BF80B584B000AFF8600F
:101B2000B9607A60FB707B68002B09D07B681B89E9
:101B3000B8681946FFF73AFC78680DF07FFC08E0BA
:101B400097F90330002B04D1B868FFF775F9034605
:101B500000E000235BB218461037BD4680BD00BFD1
:101B600080B586B000AF0346FB717F23FB72002374
:101B7000FB6000233B61184B1B687B611FE07B69A6
:101B80005B7CFA799A4217D37B695B7CFA7A9A423A
:101B900012D3124B1A687B691B6BD21AFB689A42EC
:101BA0000AD30E4B1A687B691B6BD31AFB607B69E7
:101BB0003B617B695B7CFB727B69DB687B617B697A
:101BC000002BDCD13B69002B03D038690121FFF7E2
:101BD000E5F91837BD4680BDBCF30020C0F30020F6
:101BE00080B584B000AF00237B600023BB60124B44
:101BF0001B68FB6012E0114B1A68FB681B6BD21A62
:101C00007B689A4207D30D4B1A68FB681B6BD31A8B
:101C10007B60FB68BB60FB68DB68FB60FB68002BDC
:101C2000E9D1BB68002B03D0B8680121FFF7B6F9F2
:101C30001037BD4680BD00BFD0F30020C0F30020A8
:101C400080B584B000AF0346FB71022002F05EF95C
:101C5000F860FB68002B10D1FFF7C2FF022002F0F2
:101C600055F9F860FB68002B07D1FB791846FFF7A0
:101C700077FF022002F04AF9F860FB68002B59D088
:101C8000F8680021A02217F0B5FFFB6840225A74C3
:101C9000FB6841F68442A3F86E20FB680022A3F89B
:101CA0007020FB6840F668321A85FB6840F668329F
:101CB0005A85FB6800229A72FB68FF22DA72FB6881
:101CC0004FF406721A87FB680622A3F84820FB68C7
:101CD0000022A3F84420FB680622A3F84620FB68F4
:101CE0004FF6FF72DA86FB680122A3F8522000F05B
:101CF00015F9B860FB68BA685A66FB68BA689A65F5
:101D0000FB68BA68DA64FB68BA689A660C4B1A68B2
:101D1000FB681A63FB68002283F83420FB68094AD9
:101D2000C3F88420FB68084AC3F89420FB680022AB
:101D300083F89D20FB6818461037BD4680BD00BF64
:101D4000C0F30020191B000800DD6D0080B500AF56
:101D50004020FFF775FF0346184680BD80B483B06E
:101D600000AF786039607B683A685A610C37BD46CD
:101D70005DF8047B704700BF80B483B000AF78602B
:101D800039607B683A68C3F884200C37BD465DF83B
:101D9000047B704780B483B000AF786039607B68A3
:101DA0003A68C3F880200C37BD465DF8047B704765
:101DB00080B483B000AF786039607B683A68C3F85C
:101DC00090200C37BD465DF8047B704780B483B02B
:101DD00000AF786039607B683A68DA610C37BD46DD
:101DE0005DF8047B704700BF80B485B000AFF86039
:101DF000B9601346FB71FB68BA68C3F88C20FB68B6
:101E0000FA7983F835201437BD465DF8047B7047B6
:101E100080B582B000AF78607B681B7C002B24D03B
:101E20007B681B7C0A2B20D07B681B7C012B1CD081
:101E30007B68DB6F002B07D07B68DB6F18460DF0EB
:101E4000FDFA7B680022DA677B685B6F1846FFF754
:101E500029FE7B689B6F1846FFF724FE7B680022F3
:101E60005A677B685A6F7B689A670837BD4680BDA2
:101E700080B582B000AF786039607B681A683B68D3
:101E80009A4205D17B681B68DA687B681A6019E0A2
:101E90007B681A68204B1A6010E01F4B1B68DA68D9
:101EA0003B689A4205D11C4B1B683A68D268DA60DD
:101EB00008E0194B1B68DA68174B1A60164B1B6851
:101EC000002BEAD13B680022DA603868FFF7A0FFF8
:101ED0003B681B7C0A2B16D03B681B7C012B12D065
:101EE0003B6893F8223003F00103002B0BD03B68D2
:101EF00093F8223043F00203DAB23B6883F82220E1
:101F0000386816F067FC3B681B7C012B3B6800229D
:101F10001A740837BD4680BDC8F3002080B400AFF6
:101F2000064B1A68064B1B681A44044B1A60034B95
:101F30001B681846BD465DF8047B704758000020BA
:101F4000C0F3002080B584B000AF03463960FB8049
:101F5000386813F0EFFBF860FB68002B0DD0FB68CE
:101F60001B8D002B09D0FB681B8D283B7B817A8958
:101F7000FB889A4238BF1346FB80FB88184610370F
:101F8000BD4680BDB0B588B002AF786039607B686F
:101F90005A68994B1A607B685C68974B1B681B8872
:101FA0009BB218460DF028FD03461B0A9BB203F0B6
:101FB0000F039B00E218914B1A608F4B1B681B8824
:101FC0009BB218460DF018FD03461B0A9BB203F0A6
:101FD0000F039BB29B009BB25B429BB29BB21BB2B6
:101FE000786819460DF0BAF90346002B03D17B68D7
:101FF0001B89132B03D878680DF020FA96E27E4BEC
:102000001B6810331846396806F0F4FE0346002BAF
:102010000FD1794B1B681C694FF070400DF014FD17
:1020200003461C404FF060400DF00EFD03469C42FD
:1020300003D178680DF002FA78E2704B1B689B8937
:102040009BB218460DF0D8FC03461B0B9BB2BB722B
:10205000BB7A9BB21A469203D31A9B009BB29BB2E7
:102060001BB2786819460DF079F90346002B03D0AE
:1020700078680DF0E3F959E2604B1C685F4B1B6810
:102080001B889BB218460DF0B7FC034623805B4BC0
:102090001C685A4B1B685B889BB218460DF0ACFC61
:1020A00003466380554B1C68544B1B685B6818469D
:1020B0000DF0CAFC034663606268514B1A604F4BD7
:1020C0001C684E4B1B689B6818460DF0BDFC034610
:1020D000A360A2684B4B1A60484B1C68474B1B68B7
:1020E000DB899BB218460DF087FC0346E381434B26
:1020F0001B689B899BB218460DF07EFC0346DBB241
:1021000003F03F03DAB2404B1A707B681A893E4BEA
:102110001B7803F00303002B0CBF00230123DBB269
:1021200013449AB2394B1A8000233B61384B1B6829
:102130007B6132E07B691A8C304B1B681B889BB239
:102140009A4225D17B691A8B2C4B1B685B889BB20A
:102150009A421DD17B695A68274B1B68DB689A42FB
:1021600016D17B691A68244B1B681B699A420FD1F0
:102170003B69002B0BD07B69DA683B69DA60244B42
:102180001A687B69DA60224B7A691A6008E007E016
:102190007B693B617B69DB687B617B69002BC9D113
:1021A0007B69002B77D11B4B1B687B6137E07B6918
:1021B0001A8C124B1B681B889BB29A422CD17B69EC
:1021C0001A8B0E4B1B685B889BB29A4224D17B69A9
:1021D0005A68094B1B68DB689A421DD17B691A68F3
:1021E000054B1B681B699A4216D1786900F080FA8A
:1021F00078680DF023F999E1A8BD0020A4BD002066
:10220000ACBD0020B0BD0020B4BD0020B6BD002094
:10221000BCF30020D0F300207B69DB687B617B6925
:10222000002BC4D100233B61934B1B68FB602FE064
:10223000FB68002B0AD0FB681B68002B06D0FB68EC
:102240001A688E4B1B681B699A421CD1FB681A8B5B
:102250008B4B1B685B889BB29A4214D13B69002B65
:102260000AD0FB68DA683B69DA60834B1A68FB685E
:10227000DA60814BFA681A60F86800F069F97868EA
:102280000DF0DCF852E1FB683B61FB68DB68FB604A
:10229000FB68002BCCD17B69002B00F01D81794BB2
:1022A00000221A607B681A89764B9A817B685A688B
:1022B000744B9A60734B7A685A60714B1A68714B11
:1022C0001A61714B00221A60704B00221A707B69F0
:1022D000DB6F002B29D07B69D3F88430002B0ED024
:1022E0007B69D3F884407B695A697B69DB6F104650
:1022F00079691A460023A0470346FB7209E07B690F
:10230000DB6F002079691A460023FFF705FC0346BE
:10231000FB7297F90B30002B03D17B690022DA673F
:1023200003E078680DF08AF800E1594B7A691A6089
:10233000786900F04DFA0346FB7297F90B3013F100
:10234000050F00F0B980514B1B7803F00803002BF8
:1023500016D07B69D3F89030002B08D07B69D3F876
:1023600090307A69526910466FF0050198474948E4
:102370007969FFF77DFD0220796901F0E9FD9BE0B5
:10238000424B1B7803F01003002B08D041487969B9
:10239000FFF76EFD0220796901F0DAFD8CE0002381
:1023A000FB727B69B3F86C30002B14D07B69D3F8D7
:1023B0008030002B0DD07B69D3F880307A69516969
:1023C0007A69B2F86C200846796998470346FB722F
:1023D00001E00023FB722C4B1B68002B34D02E4BEA
:1023E0001B7803F00803002B08D0274B1B68264AF4
:1023F0001268527B42F00102D2B25A737B69D3F861
:102400008430002B0ED07B69D3F884407B695A69F5
:102410001D4B1B68104679691A460023A0470346E6
:10242000FB7209E0184B1B68002079691A460023EB
:10243000FFF772FB0346FB7297F90B30002B03D0BA
:10244000114B1A687B69DA67104B1B7803F0200385
:10245000002B2BD07B69D3F88430002B1ED07B69F6
:10246000D3F884407B695B691846796900220023B0
:10247000A0470346FB7219E0C4F30020A8BD00206A
:10248000A4BD002090BD0020BCBD0020B8BD002030
:10249000D4F30020BCF30020B4BD002000207969F3
:1024A00000220023FFF738FB0346FB72214B00227A
:1024B0001A60786916F08EF91E4B00221A601E4BC6
:1024C0005B68002B32D01C4B5B6818460CF0B6FFE3
:1024D000194B00225A6029E0184B1B689B899BB25C
:1024E00018460DF089FA034603F00403002B1AD1B5
:1024F000134B1868134B1B881A46134B1B68D118D3
:10250000124B1B6803F11002104B1B680C330B4C71
:1025100024686488A5B2094C24682488A4B2009574
:10252000019416F061FB78680CF088FF1837BD46FF
:10253000B0BD00BFD4F3002090BD0020A4BD00209A
:10254000B0BD0020B6BD0020ACBD0020A8BD00205D
:10255000B0B586B002AF78605E4B1B7803F0100315
:10256000002B1CD05C4B1B68581C5C4B1B881A460C
:102570005B4B1B68D1185B4B1B6803F11002594B76
:102580001B680C33584C24686488A5B2564C2468E8
:102590002488A4B20095019416F026FB94E04D4BDC
:1025A0001B7803F00203002B00F08E807B685B7CBD
:1025B0001846FFF745FBF860FB68002B01D1FF23AD
:1025C00083E0484B1B681033002B03D0454B1B683E
:1025D0001B6900E00023FA6813607B681A8BFB68B4
:1025E0001A83404B1B680C33002B03D03D4B1B68F8
:1025F000DB6800E00023FA6853603B4B1B681B88D4
:102600009AB2FB681A84FB6803221A74344B1B6865
:102610005A1CFB685A62FB685A6AFB68DA62324BE2
:102620001B68DB899AB2FB68A3F85C20FB68B3F8EF
:102630005C20FB68A3F85420294B1B685A1EFB68DA
:102640001A667B685A69FB685A617B68DA69FB68BD
:10265000DA617B681A8940F2991313409AB2FB68D9
:102660001A81224B1A68FB68DA60204BFA681A60FC
:1026700003F066FCF86801F06DF8FB681A8FFB68E0
:10268000043310461946FFF75DFC03461A46FB6803
:102690001A870023009301230193F8680021002288
:1026A000122315F081FD0346FB7297F90B30002BC6
:1026B00005D0F8680021FEF771FCFB7A05E0F868A8
:1026C00016F088F8034600E000235BB21846103786
:1026D000BD46B0BDB4BD0020B0BD0020B6BD0020D9
:1026E000ACBD0020A8BD0020A4BD0020BCF300208C
:1026F000B0B584B002AF78602E4B1B7803F00403B2
:10270000002B01D0002350E02A4B1B7803F002037A
:10271000002B2DD0284B1A687B685B6AD31A002BDC
:1027200030DB254B1A687B68596A7B681B8D0B442C
:10273000D31A002B26DC214B1868214B1B881A4624
:102740001D4B1B68D1181F4B1B6803F110021D4B5A
:102750001B680C331C4C24686488A5B21A4C24688E
:102760002488A4B20095019416F03EFA00231CE0E0
:10277000104B1B7803F00103002B03D0134B1A6896
:102780007B681A630E4B1B88002B0DD07B6893F877
:10279000223043F00203DAB27B6883F822207868A3
:1027A00016F018F8034600E000235BB2184608371D
:1027B000BD46B0BDB4BD0020ACBD0020B0BD002002
:1027C000B6BD0020A8BD0020A4BD0020C0F300209D
:1027D000B0B588B002AF78600023FB750023BB75ED
:1027E000A34B1B7803F00403002B36D07B681B7CC3
:1027F000022B08D17B689A6D9E4B1B689A4215D1BB
:102800000123FB7512E09C4B1A687B685B6AD31A44
:10281000002B0BDB984B1A687B68596A7B681B8D11
:102820000B44D31A002B01DC0123FB75FB7D002B2D
:1028300011D0924B1B7843F00803DAB28F4B1A7019
:102840007B6893F8223023F00103DAB27B6883F8C7
:102850002220FA2310E300230EE3854B1B7803F0BC
:102860000203002B15D07B681B7C022B11D07B68E8
:102870001B7C032B0DD07B6893F8223043F00203BE
:10288000DAB27B6883F82220786815F0A3FF002372
:10289000F2E27B4B1A687B681A637B68002283F83C
:1028A0009D20786800F056FF7B681B7C023B072B5D
:1028B00000F2E08201A252F823F000BFDD280008F8
:1028C000912A0008C72B0008FB2B0008192D0008CF
:1028D000C72B0008B52D0008452E0008644B1B7857
:1028E00003F01003002B00F0A080614B1B7803F075
:1028F0000203002B00F099807B689B6F1B695B686B
:1029000018460DF0A1F803465A1C5A4B1B689A4210
:1029100040F08B807B68B3F86E3001339AB27B68ED
:10292000A3F86E20544B1B685A1C7B685A627B6864
:102930005A6A7B68DA624F4B1A687B68DA64514BDB
:102940001B68DB899AB27B68A3F85C204A4B1B6842
:102950005A1E7B681A667B6804221A747B681A8F79
:102960007B68043310461946FFF7ECFA03461A4613
:102970007B681A877B681B8F1A46920013445B00A2
:102980009AB27B68A3F854207B68B3F85230012BCD
:1029900004D17B681B8F5B009BB201E07B681B8FBF
:1029A0007A68A2F852307B68B3F87030013B9AB273
:1029B0007B68A3F870207B689B6F3B613B691A685A
:1029C0007B689A677B689B6F002B04D17B684FF60E
:1029D000FF72DA8606E07B680022DA867B680022D6
:1029E00083F84A203869FFF779F87B68D3F8883094
:1029F000002B0BD07B68D3F888307A685269104678
:102A00007968002298470346BB7501E00023BB7537
:102A10007B6893F8223043F00203DAB27B6883F8D4
:102A20002220786815F0D6FE21E0114B1B7803F0C8
:102A30001003002B1BD00F4B1868134B1B881A4632
:102A40000D4B1B68D118114B1B6803F110020F4B83
:102A50001B680C330B4C24686488A5B2094C2468AD
:102A60002488A4B20095019416F0BEF803E202E2B5
:102A7000B4BD0020B0BD0020ACBD0020B8BD00201A
:102A8000C0F30020A4BD0020B6BD0020A8BD0020DA
:102A9000974B1B7803F01003002B00F08280954BBE
:102AA0001A687B68DB6CD31A013B002B5CDB914B13
:102AB0001A687B689B6DD31A002B55DC7B68042257
:102AC0001A747B68DB69002B0AD07B68DB697A6843
:102AD000526910467968002298470346BB7501E0A9
:102AE0000023BB7597F91630002B05D078680121BB
:102AF000FEF754FAFB23BFE17B68B3F85230FB8149
:102B0000786800F0CBF97B68B3F86C30002B07D005
:102B10007B68B3F86C30013B9AB27B68A3F86C20F9
:102B2000FB89012B04D17B681B8F5B009BB201E00A
:102B30007B681B8F7A68A2F852306F4B1B7803F0CA
:102B40002003002B0FD07B6893F8223043F0020360
:102B5000DAB27B6883F82220786815F03BFE7B6848
:102B600007221A741CE01BE0624B1868634B1B8839
:102B70001A46634B1B68D118624B1B6803F11002A5
:102B8000604B1B680C33604C24686488A5B25E4CB3
:102B900024682488A4B20095019416F025F811E069
:102BA00010E0534B1B7803F00203002B0AD07B6824
:102BB0005B6A5A1E524B1B689A4203D1786816F022
:102BC000BBF858E157E1786800F068F94A4B1B7888
:102BD00003F02003002B0FD07B6893F8223043F0E2
:102BE0000203DAB27B6883F82220786815F0F2FDE0
:102BF0007B6807221A743EE13DE1786800F04EF9E7
:102C00003D4B1B7803F02003002B5FD0384B1B7823
:102C100003F01003002B49D07B689A6D354B1B687D
:102C20009A4243D17B6893F8223043F00203DAB230
:102C30007B6883F82220786815F0CCFD7868FFF770
:102C4000E7F8324B1A687B689A4205D12F4B1B6814
:102C5000DA682E4B1A6019E02C4B1A682C4B1A605C
:102C600010E02B4B1B68DA687B689A4205D1284B31
:102C70001B687A68D268DA6008E0254B1B68DA685E
:102C8000234B1A60224B1B68002BEAD17B68002281
:102C9000DA607B680A221A741E4B1A687B68DA6055
:102CA0001C4B7A681A6003F04BF91FE07B6893F8BD
:102CB000223043F00203DAB27B6883F8222078687E
:102CC00015F088FD7B6808221A740FE0084B1B780A
:102CD00003F01003002B09D07B689A6D054B1B682D
:102CE0009A4203D17B6806221A74C4E0C3E000BF95
:102CF000B4BD0020B0BD0020B8BD0020B6BD00208E
:102D0000ACBD0020A8BD0020A4BD0020BCF3002065
:102D1000C8F30020D0F30020786800F0BFF8594BCA
:102D20001B7803F02003002B43D07B6893F82230FC
:102D300043F00203DAB27B6883F82220786815F04A
:102D400049FD7868FFF764F84F4B1A687B689A4230
:102D500005D14D4B1B68DA684B4B1A6019E04A4BA2
:102D60001A684A4B1A6010E0484B1B68DA687B68A7
:102D70009A4205D1454B1B687A68D268DA6008E050
:102D8000424B1B68DA68414B1A60404B1B68002BB2
:102D9000EAD17B680022DA607B680A221A743C4B15
:102DA0001A687B68DA603A4B7A681A6003F0C8F8F0
:102DB00061E060E0786800F071F8364B1B7803F052
:102DC0001003002B3DD07B689A6D334B1B689A42F1
:102DD00037D17868FFF71CF82B4B1A687B689A424A
:102DE00005D1294B1B68DA68274B1A6019E0264B7E
:102DF0001A68264B1A6010E0244B1B68DA687B685F
:102E00009A4205D1214B1B687A68D268DA6008E0E3
:102E10001E4B1B68DA681D4B1A601C4B1B68002B8D
:102E2000EAD17B680022DA607B680A221A74184BA8
:102E30001A687B68DA60164B7A681A6003F080F8CB
:102E400019E018E0786800F029F8124B1B7803F0BD
:102E50001003002B0DD07B689A6D0F4B1B689A42B4
:102E600007D1084B1B7843F01003DAB2054B1A70F8
:102E700001E000E000BF00235BB218461837BD46F2
:102E8000B0BD00BFB8BD0020BCF30020C8F30020D7
:102E9000D0F30020B4BD0020B0BD0020F0B58BB051
:102EA00000AF78600023BB61A54B1B7803F01003D3
:102EB000002B00F095827B68B3F85C301A467B6883
:102EC0005B6E13447B617B681A6E9E4B1B68D31A42
:102ED000002B1BDB7B681A6E9A4B1B689A4206D14B
:102EE0007B685A6E984B1B68D31A002B0EDB7B68ED
:102EF0005A6E954B1B689A4225D1944B1B68DB890F
:102F00009AB27B68B3F85C309A421CD98F4B1B682D
:102F1000DB899AB27B68A3F85C208A4B1A687B68CD
:102F20001A66894B1A687B685A667B68B3F85C300E
:102F3000002B08D07B6893F89C30002B03D07B6873
:102F4000002283F89C20804B1A687B68DB6CD31AC4
:102F5000002B5BDC7B680022A3F86C207C4B1B8879
:102F6000002B4AD17B685A6E7B68B3F85C301A44F8
:102F70007B699A4241D17B68DB8E1BB2002B3CDB24
:102F80007B68DA6C704B1B689A4236D10123BB61B7
:102F90007B6893F850305A1C7B6893F850309A4203
:102FA00007DD7B6893F850300133DAB27B6883F831
:102FB00050207B6893F85030032B16D97B68B3F808
:102FC00052207B681B8F13449AB27B68B3F852304F
:102FD0009A4212D97B68B3F852207B681B8F134446
:102FE0009AB27B68A3F8522007E07B6893F85030D0
:102FF000032B02D1786815F0E1FEBB69002B40F08D
:1030000025817B68002283F850205FE14E4B1A68CF
:103010007B68DB6CD31A013B002BC0F212814A4B58
:103020001A687B689B6DD31A002B00F30A817B68BA
:1030300093F8223003F00403002B0ED07B6893F842
:10304000223023F00403DAB27B6883F822207B6805
:10305000B3F854207B68A3F852207B68002283F8E1
:103060004A207B68B3F844301BB2DB109BB29AB2A3
:103070007B68B3F846309BB213449BB29AB27B682C
:10308000A3F84820304B1B689AB27B68DB6C9BB27C
:10309000D31A9AB27B68A3F86C207B68B3F86E20D1
:1030A0007B68B3F86C3013449AB27B68A3F86E2047
:1030B0007B68002283F85020234B1A687B68DA640F
:1030C0007B681B7C032B3AD97B68B3F852207B6862
:1030D000B3F854309A4216D27B68B3F852207B681A
:1030E0001B8F13449AB27B68B3F852309A4226D9A8
:1030F0007B68B3F852207B681B8F13449AB27B68BD
:10310000A3F852201BE07B68B3F852207B681B8F2A
:103110007968098F01FB03F17B68B3F8523091FBAA
:10312000F3F39BB213447B827B68B3F852307A8A04
:103130009A4204D97B687A8AA3F85220FFE748E0D4
:10314000B4BD0020ACBD0020B0BD0020A4BD002057
:10315000B6BD00207B689B6FFB607B689B6F1A6825
:103160007B689A67FB685B6818460CF0B7F97B6868
:10317000B3F86C30002B13D0FB681B699B899BB2A2
:1031800018460CF039FC034603F00103002B07D06E
:103190007B68B3F86C30013B9AB27B68A3F86C2073
:1031A0007B68B3F87040FB685B6818460CF096F9D2
:1031B0000346E31A9AB27B68A3F87020F868FEF71A
:1031C0008DFC7B68B3F87030002B02D07B689B6F5E
:1031D000002B7B689B6F002B22D07B689B6F1B6949
:1031E0005B6818460CF030FC04467B689B6F9B893B
:1031F0001D467B689B6F1B699B899BB218460CF030
:10320000FBFB034603F00303002B0CBF0023012349
:10321000DBB22B44E2189A4B1B68D31A002B99DDC2
:103220007B689B6F002B04D17B684FF6FF72DA86B8
:1032300002E07B680022DA867B68002283F8342073
:1032400004E07B680022A3F86C203FE03EE07B684E
:103250005B6FFB607B685B6F1A687B685A67FB6813
:103260005B6818460CF03AF97B68B3F86C30002BB9
:1032700013D0FB681B699B899BB218460CF0BCFB02
:10328000034603F00103002B07D07B68B3F86C30D2
:10329000013B9AB27B68A3F86C207B68B3F870405E
:1032A000FB685B6818460CF019F90346E31A9AB2FA
:1032B0007B68A3F87020F868FEF710FC7B68B3F811
:1032C0007030002B02D07B689B6F002B7B685B6F9C
:1032D000002B29D06A4B1C687B685B6F1B695B689D
:1032E00018460CF0B1FB05467B685B6F9B891E4658
:1032F0007B685B6F1B699B899BB218460CF07CFB5B
:10330000034603F00303002B0CBF00230123DBB2B1
:1033100033442B44E31A002B06DB594B1A687B68B5
:103320009B6DD31A002B92DD7B68DB6B002B57D093
:103330007B681A6C524B1B68D31A002B50DA514B26
:103340001B689AB27B68DB6B9BB2D31A9BB2FB8380
:10335000FA8B7B68B3F844301BB2DB109BB29BB294
:10336000D31A9BB2FB837B68B3F844309AB2FB8BD1
:1033700013449BB29AB27B68A3F84420B7F91E307D
:10338000002B03DAFB8B5B429BB2FB83FA8B7B68DF
:10339000B3F846301BB29B109BB29BB2D31A9BB2C0
:1033A000FB837B68B3F846309AB2FB8B13449BB225
:1033B0009AB27B68A3F846207B68B3F844301BB20E
:1033C000DB109BB29AB27B68B3F846309BB21344D1
:1033D0009BB29AB27B68A3F848207B680022DA632C
:1033E000294B1B88002B00F091817B685A6A274B80
:1033F0001B68D31A013B002B74DB7B685A6A224B93
:103400001B881946214B1B680B44D31A0133002B30
:1034100068DC7B685A6A1D4B1B68D31A3B621C4BE5
:103420005B687B621A4B5B685B891A463B6A9A420F
:1034300030DA174B5B681A893B6A9BB2D31A7B81DF
:103440000DE07B6A5B893A6AD31A3B627B6A7A89B0
:103450001A817B6A00225A817B6A1B687B627B6AC5
:103460005B891A463B6A9A42EBDB3B6A9BB25B4242
:103470009BB29BB21BB2786A19460BF06FFF15E046
:10348000B0BD0020C0F30020B6BD0020ACBD0020C0
:1034900090BD0020984B5A683B6A9BB25B429BB23E
:1034A0009BB21BB2104619460BF058FF7B6A5A6854
:1034B000914B9A60904B9A89904B1B6899B27B68AC
:1034C0005B6A9BB2CB1A9BB213449AB28A4B9A8125
:1034D000894B1B697A68516A884A1160874A126869
:1034E0005A6012E0854B1A687B685B6AD31A002B1E
:1034F0000BDA7B6893F8223043F00203DAB27B6880
:1035000083F82220786815F065F97C4B1A687B688F
:103510005B6AD31A002BC0F2E980784B1A687B688B
:10352000596A7B681B8D0B44D31A0133002B00F3BF
:10353000DD807B685A6A714B1B689A4240F0D280EA
:103540006D4B9C896C4B1B699B899BB218460CF098
:1035500053FA034603F00303002B0CBF002301239F
:10356000DBB223449AB2664B1A807B681A8D644B97
:103570001B889A425DD2604B1B699B899BB218469F
:103580000CF03AFA034603F00103002B1ED05A4B0D
:103590001C69594B1B699B899DB24FF6C0700CF09A
:1035A00015FA03462B409DB2534B1B699B899BB276
:1035B00018460CF021FA034603F03E039BB218466E
:1035C0000CF004FA03462B439BB2A3817B681A8D4F
:1035D000494B9A81484B1B699B899BB218460CF05A
:1035E0000BFA034603F00203002B05D0424B9B89E4
:1035F000013B9AB2404B9A813F4B5A683E4B9B89A4
:10360000104619460BF046FE3B4B9C893A4B1B6912
:103610009B899BB218460CF0EFF9034603F00303B5
:10362000002B0CBF00230123DBB223449AB2344B9E
:103630001A80334B1B881A46304B1B681A447B6830
:103640005A627B681A8D2E4B1B88D31A9AB27B68FC
:103650001A857868FDF768FE274B5B681B89002B8D
:1036600006D0254B5A68274B1A60234B00225A601C
:10367000214B1B699B899BB218460CF0BDF9034690
:1036800003F00103002B06D01F4B1B7843F02003EF
:10369000DAB21D4B1A707B6893F8223003F00103F5
:1036A000002B15D07B6893F8223023F00103DAB2A7
:1036B0007B6883F822207B6893F8223043F0020372
:1036C000DAB27B6883F82220786815F083F811E07D
:1036D0007B6893F8223043F00103DAB27B6883F809
:1036E000222007E0786815F033F803E0786815F0D9
:1036F0002FF829E028E000BF90BD0020ACBD0020DD
:10370000B6BD0020BCBD0020B8BD0020104B1A681B
:103710007B685B6AD31A002B0ADB0D4B1A687B6847
:10372000596A7B681B8D0B44D31A0133002B0BDDC8
:103730007B6893F8223043F00203DAB27B6883F8A7
:103740002220786815F046F82C37BD46F0BD00BF42
:10375000ACBD002080B586B000AF78603C4B1B68E4
:1037600014333B613A4B1B689B899BB218460CF0A3
:1037700043F903461B0B9BB2052B66D9344B1B68E0
:103780009B899BB218460CF037F903461B0B9BB282
:10379000053B9BB29B00FB810023FB824FE0FB8A31
:1037A0003A6913441B787B737B7B012B04D0022B7B
:1037B00006D0002B48D031E0FB8A0133FB823EE08B
:1037C000FB8A01333A6913441B78042B04D1FB8A2A
:1037D0001A1DFB899A4200DD37E0FB8A02333A6901
:1037E00013441B781B029AB2FB8A033339690B44DA
:1037F0001B7813439BB27B817A8940F2B4539A427F
:1038000004D87B89002B01D07B8901E040F2B453BE
:103810007A681387FB8A0433FB8210E0FB8A01334A
:103820003A6913441B78002B00D10EE0FB8A013368
:103830003A6913441B781A46FB8A1344FB82FA8ABE
:10384000FB899A42ABD300E000BF1837BD4680BD6C
:10385000A4BD002080B58AB000AF78603960002335
:103860007B6200233B620023FB610023BB617B681A
:103870001B8A9BB27B627B6A23F440537B623B686A
:10388000DB887A6A13437B627B6A9AB27B681A820E
:103890007B689B899BB27B627B6A23F4B05323F0E5
:1038A0000C037B623B689A883B681B8913439AB27E
:1038B0003B685B8913439BB27A6A13437B627B6AE2
:1038C0009AB27B689A817B689B8A9BB27B627B6A97
:1038D00023F440737B623B689B897A6A13437B6263
:1038E0007B6A9AB27B689A8207F10803184605F052
:1038F0001DFF7A68314B9A4203D07A68304B9A4266
:1039000002D17B693B6201E03B693B627B689B893A
:103910009BB29BB21BB2002B0CDA3A6A13469B0097
:1039200013449A001A443B681B685B00B2FBF3F334
:10393000FB610BE03A6A13469B0013449A001A4459
:103940003B681B689B00B2FBF3F3FB61FA691D4BFC
:10395000A3FB02135B091B017B627B6A1B096422C8
:1039600002FB03F3FA69D31ABB617B689B899BB2A4
:103970009BB21BB2002B0DDABB69DB0003F13202F4
:10398000104BA3FB02135B0903F007037A6A13438E
:103990007B620CE0BB691B0103F13202094BA3FB04
:1039A00002135B0903F00F037A6A13437B627B6A9D
:1039B0009AB27B681A812837BD4680BD001001404D
:1039C000001401401F85EB5180B483B000AF7860D4
:1039D0000B46FB70FB78002B08D07B689B899BB261
:1039E00043F400539AB27B689A8107E07B689B8915
:1039F0009BB223F400539AB27B689A810C37BD4680
:103A00005DF8047B704700BF80B483B000AF78607E
:103A10000B467B807B88C3F308039AB27B689A804D
:103A20000C37BD465DF8047B704700BF80B485B09D
:103A300000AF78600B467B800023FB737B681B889C
:103A40009AB27B8813409BB2002B02D00123FB73F8
:103A500001E00023FB73FB7B18461437BD465DF87D
:103A6000047B704780B483B000AF0346FB71044B06
:103A7000FA791A600C37BD465DF8047B704700BFC9
:103A800020000E42B0B5A0B000AF78607B681B6824
:103A900003F561627B681A60786815F0D1FF034610
:103AA00007F15C041D460FCD0FC40FCD0FC42B686A
:103AB00023603A6F474B83FB02135911D317CB1A7C
:103AC000642101FB03F3D31ADAB2434BDA70FB6EC5
:103AD0000133013B0B2B4BD801A252F823F000BF5E
:103AE000113B0008193B0008213B0008293B000856
:103AF000313B0008393B0008413B0008493B0008C6
:103B0000513B0008593B0008613B0008693B000835
:103B1000314B01225A702FE02F4B02225A702BE0BA
:103B20002D4B03225A7027E02B4B04225A7023E0BE
:103B3000294B05225A701FE0274B06225A701BE0C2
:103B4000254B07225A7017E0234B08225A7013E0C6
:103B5000214B09225A700FE01F4B10225A700BE0C4
:103B60001D4B11225A7007E01B4B12225A7003E0C2
:103B7000194B01225A7000BFBB6EDAB2164B9A7015
:103B80007B6FDAB2144B1A700020134914F05EF800
:103B90007B6EDAB2114B1A703B6EDAB20F4B5A7071
:103BA000FB6DDAB20D4B9A7000200C4913F076FFD2
:103BB00007F10C0207F15C0310465021084A16F089
:103BC000DFFC07F10C030748194608F0EFFE8037C9
:103BD000BD46B0BD1F85EB51D8F30020F8F300209F
:103BE00050FE010868FE010880B582B000AF4FF0BA
:103BF0008050012105F0A0FE0120FFF733FF0120D6
:103C000005F084FD00BF612005F00EFF0346002B88
:103C1000F9D04FF4007005F033FE1D4BF0221A600E
:103C20001C4B7F221A60012005F058FE13F0FAFEAB
:103C3000184B1A68184B5A60154B1A68164B9A6045
:103C4000154B00221A60144813F068FE0E23FB7116
:103C500012237B710123BB7101233B713B1D0020AB
:103C6000194613F0F3FF0D4B0D221A700B4B002277
:103C70005A700A4B00229A700020084913F00EFF78
:103C8000002043F2F22114F0BFF80837BD4680BD92
:103C9000C4BD0020C0BD0020ECF30020F8F30020DC
:103CA000B0B584B004AF00200F4913F081FF0020AD
:103CB0000E4914F05BF80C4B1B7819460A4B5B78E5
:103CC0001A46094B9B780948807805460748407892
:103CD00004460648C078009501940290044808F014
:103CE00065FEBD46B0BD00BFF8F30020D8F300204C
:103CF00070FE010880B584B002AF786000200949E9
:103D000013F056FF074B1B781A46064B5B780549A4
:103D1000897800917868044908F05CFE0837BD4650
:103D200080BD00BFF8F300208CFE010880B584B090
:103D300002AF78600020094914F018F8074B9B780F
:103D40001A46064B5B780549C978009178680449A2
:103D500008F040FE0837BD4680BD00BFD8F3002004
:103D60009CFE010880B586B002AF78600B467B8070
:103D700000203E4913F0FAFF3C4B9B78FB733B4B12
:103D80005B78BB73394BDB787B7361E07B88013BED
:103D90007B80FB7B012B58D1BB7B012B07D11F23E1
:103DA000FB730C23BB737B7B013B7B7350E0BB7BC2
:103DB000013BBB73BB7B013B0A2B3AD801A252F8F3
:103DC00023F000BFF13D0008F73D0008FD3D00086D
:103DD000033E0008093E00080F3E0008153E00089B
:103DE0001B3E0008213E0008273E00082D3E00082B
:103DF0001F23FB731DE01C23FB731AE01F23FB73BF
:103E000017E01E23FB7314E01F23FB7311E01E2336
:103E1000FB730EE01F23FB730BE01F23FB7308E013
:103E20001E23FB7305E01F23FB7302E01E23FB73BD
:103E300000BFBB7B022B0BD17B7B03F00303DBB208
:103E4000002B05D11D23FB7302E0FB7B013BFB73C1
:103E50007B88002B9AD1FA7BBB7B797B00917868B9
:103E6000034908F0B7FD1037BD4680BDD8F30020E8
:103E70009CFE010880B483B000AF00237B8002E089
:103E80007B8801337B807B880B2BF9D91B4B033359
:103E900023F003037B6000237B8026E07A88184BA5
:103EA000002143F8221000233B8014E07A88144B51
:103EB00053F822207B681A607A88114B796843F89E
:103EC00022107A880F4B33F812307A6813447B60E3
:103ED0003B8801333B807A880B4B33F812303A88A9
:103EE0009A42E3D37B8801337B807B880B2BD5D927
:103EF0000C37BD465DF8047B704700BFF8BD00205D
:103F0000C8BD0020ACFE0108C4FE010880B485B025
:103F100000AF0346FB71FB790B2B01D900230EE0A8
:103F2000FA790A4B53F82230FB60FB68002B05D06E
:103F3000FA79FB681968054B43F82210FB681846AC
:103F40001437BD465DF8047B704700BFC8BD002034
:103F500080B485B000AF03463960FB713B68002B2D
:103F600000D10CE03B68FB60FA79074B53F8222044
:103F7000FB681A60FA79044BF96843F82210143789
:103F8000BD465DF8047B7047C8BD002080B582B097
:103F900000AF0023FB7102F025FCFCF7CBFD00F025
:103FA0009FF80346FB71FB79DBB2002B02D0FB7953
:103FB000DBB23DE000F0AAF90346FB71FB79DBB20E
:103FC000002B02D0FB79DBB232E01B4B01221A75C9
:103FD000194B00221A60184B00225A60164B00221F
:103FE0009A60154B0022DA60134B00221A611248C6
:103FF000FCF7AEFD114800F04FFA0346FB71FB7968
:10400000DBB2002B08D10D4BB3F84C301B04184623
:1040100000F060FD0346FB71FB79DBB2002B05D19C
:104020004FF4006000F0EAFC0346FB71FB79DBB261
:1040300018460837BD4680BD60F4002010F400200B
:1040400080B582B000AF0423FB7100F011F8034685
:10405000FB71FB79042B01D1002305E0FB79FF2BD9
:1040600001D1022300E0012318460837BD4680BD78
:1040700080B582B000AF00237B6000F019F80346E2
:10408000012B0FD13B1D184600F090FF0346002B7B
:1040900001D0FF2307E07B685B0ADBB203F00F036C
:1040A000DBB200E0FF2318460837BD4680BD00BFE5
:1040B00080B582B000AF0123FB7108484FF4004186
:1040C0000DF010F80346002B01D00023FB71FB79A3
:1040D000DBB218460837BD4680BD00BF0004024071
:1040E00080B586B000AF0023FB7100237B61002305
:1040F0003B610023FB600023BB60814B76221A7575
:104100007F4B00221A607E4B00225A607C4B0022BB
:104110009A607B4B0022DA60794B00221A61784862
:10412000FCF716FD0320FCF751FD0120FCF73EFDD6
:10413000744B00221A60734B00225A60714B0022AC
:104140009A60704B0022DA606E4B4FF480621A6105
:104150006C48FCF757FD00F0E1FF0346FB71FB796B
:10416000DBB2002B02D0FB79DBB2C5E0654B4FF42C
:10417000D5721A60634B08225A60624B40229A60E3
:10418000604B0022DA605F4B4FF480621A615D4839
:10419000FCF738FD00F0E8FF0346FB71FB79DBB26A
:1041A000002B06D1584B01221A604FF08043BB60B0
:1041B00017E0544B00221A60524B37225A60514B81
:1041C00040229A604F4B0022DA604E4B4FF48062DF
:1041D0001A614C48FCF716FD372001F001F8034640
:1041E000FB71484B00221A60464B37225A60454B00
:1041F00040229A60434B0022DA60424B4FF48062C7
:104200001A614048FCF7FEFC372000F0E9FF034646
:10421000FB71FB79DBB2002B6CD14FE0394B0022F4
:104220001A60384B37225A60364B40229A60354B21
:104230000022DA60334B4FF480621A613148FCF798
:10424000E1FC372000F0CCFF0346FB71FB79DBB2C9
:10425000002B02D0FB79DBB24EE0BB6843F0004399
:1042600043F48013274A1360264B29225A60254BBA
:1042700040229A60234B0022DA60224B4FF4806286
:104280001A612048FCF7BEFC01F07AF80346FB7186
:10429000FB79DBB2002B02D0FB79DBB22CE00020F3
:1042A000FCF7E8FC78617B69DB0F012B14BF00236E
:1042B0000123DBB2FB603B6901333B61FB68002BF0
:1042C00004D13A694FF6FE739A42A7D93A694FF67C
:1042D000FE739A4204D91B23FB71FB79DBB20BE01E
:1042E0007B6903F080437B617B69002B02D0064B26
:1042F00002221A60FB79DBB218461837BD4680BD32
:1043000060F40020FCF300205CE9002080B582B05E
:1043100000AF0023FB710123BB80FCF765FC034663
:10432000002B03D12523FB71FB79A7E0554B1B68BC
:10433000042B33D0544B00221A60534B02225A6094
:10434000514BC0229A60504B0022DA604E4B4FF422
:1043500080621A614C48FCF755FC01F039F80346BD
:10436000FB71FB79002B01D0FB7987E00020FCF783
:1043700081FC0246454B1A600420FCF77BFC024698
:10438000424B5A600820FCF775FC02463F4B9A608E
:104390000C20FCF76FFC02463C4BDA60394B1B6883
:1043A000002B0BD0374B1B68012B07D0354B1B68FC
:1043B000062B03D0334B1B68022B1ED1324B00223D
:1043C0001A60314B03225A602F4B40229A602E4BC9
:1043D0000022DA602C4B4FF480621A612A48FCF705
:1043E00011FC3B1D0320194601F026F80346FB7122
:1043F000FB79002B01D0FB7940E0224B1B68042B9A
:1044000039D0BB881A46224B1A60BB881B041A4657
:104410001D4B1A601C4B09225A601B4BC0229A602C
:10442000194B0022DA60184B4FF480621A6116486B
:10443000FCF7E8FB00F0CCFF0346FB71FB79002B97
:1044400001D0FB791AE00020FCF714FC0246114B66
:104450001A600420FCF70EFC02460E4B5A6008203E
:10446000FCF708FC02460B4B9A600C20FCF702FCA0
:104470000246084BDA600023FB71FB7918460837C7
:10448000BD4680BD5CE90020FCF3002070E90020FF
:1044900080E9002060E9002080B485B000AF78603A
:1044A0000023BB730023FB737C4B1B68DAB27B6871
:1044B00083F84E207A4B1B689AB27B68A3F84C2095
:1044C000784B1B681B0EFB73FB7B9B09DAB27B6886
:1044D0001A70FB7B03F03C039B10DAB27B685A70C6
:1044E000FB7B03F00303DAB27B689A706D4B1B68A9
:1044F00003F47F031B0CFB737B68FA7BDA70694B58
:104500001B6803F47F431B0AFB737B68FA7B1A71F9
:10451000644B1B68FB737B68FA7B5A71614B5B6869
:104520001B0EFB73FB7B9BB21B019AB27B68DA808C
:104530005C4B5B6803F47F031B0CFB737B68DB88BD
:104540009AB2FB7B1B09DBB213439AB27B68DA8019
:10455000FB7B03F00F03DAB27B681A72514B5B6886
:1045600003F47F431B0AFB73FB7BDB09DAB27B6836
:104570005A72FB7B03F040039B11DAB27B689A729C
:10458000FB7B03F020035B11DAB27B68DA72FB7B02
:1045900003F010031B11DAB27B681A737B680022E8
:1045A0005A733E4B1B68002B03D03C4B1B68012BFE
:1045B0007AD1FB7B03F003039B021A467B681A61E6
:1045C000384B5B68FB737B681A69FB7B9B001A4363
:1045D0007B681A61334B9B681B0EFB737B681A69FF
:1045E000FB7B9B09DBB21A437B681A61FB7B03F000
:1045F0003803DB10DAB27B681A75FB7B03F0070324
:10460000DAB27B685A75274B9B6803F47F031B0C57
:10461000FB73FB7B5B09DAB27B689A75FB7B03F06B
:104620001C039B10DAB27B68DA75FB7B03F0030393
:10463000DBB25B00DAB27B681A761A4B9B6803F434
:104640007F431B0AFB737B681B7EDAB2FB7BDB09B3
:10465000DBB21343DAB27B681A767B681B695A1C9B
:104660007B685A647B685A6C7B681B7EDBB20233C2
:104670009A407B685A647B681B7ADBB2012202FA9B
:1046800003F31A467B689A647B685B6C7A68926C69
:1046900002FB03F27B685A643BE000BF5CE9002048
:1046A00080E9002060E90020A94B1B68022B30D173
:1046B000A84B5B68FB73FB7B03F03F031B041A46AC
:1046C0007B681A61A34B9B681B0EFB737B681A699E
:1046D000FB7B1B021A437B681A619E4B9B6803F4A9
:1046E0007F031B0CFB737B681A69FB7B1A437B6897
:1046F0001A61984B9B6803F47F431B0AFB737B682A
:104700001B690133DA047B685A647B684FF40072DA
:104710009A64FB7B03F040039B11DAB27B685A7604
:10472000FB7B03F03F03DBB25B00DAB27B689A7677
:10473000884B9B68FB737B689B7EDAB2FB7BDB0953
:10474000DBB21343DAB27B689A76FB7B03F07F031C
:10475000DAB27B68DA767F4BDB681B0EFB73FB7B80
:10476000DB09DAB27B681A77FB7B03F060035B112D
:10477000DAB27B685A77FB7B03F01C039B10DAB23A
:104780007B689A77FB7B03F00303DBB29B00DAB212
:104790007B68DA776F4BDB6803F47F031B0CFB73DA
:1047A0007B68DB7FDAB2FB7B9B09DBB21343DAB2B7
:1047B0007B68DA77FB7B03F020035B11DAB27B685E
:1047C00083F820207B68002283F82120FB7B03F004
:1047D0000103DAB27B6883F822205E4BDB6803F4C6
:1047E0007F431B0AFB73FB7BDB09DAB27B6883F830
:1047F0002320FB7B03F040039B11DAB27B6883F834
:104800002420FB7B03F020035B11DAB27B6883F882
:104810002520FB7B03F010031B11DAB27B6883F8C1
:104820002620FB7B03F00C039B10DAB27B6883F835
:104830002720FB7B03F00303DAB27B6883F8282090
:10484000444BDB68FB73FB7B5B08DAB27B6883F865
:1048500029207B68012283F82A203F4B1B681B0E0E
:10486000FB737B68FA7B83F82C203B4B1B6803F4BB
:104870007F031B0CFB73FB7B9BB21B029AB27B6812
:10488000DA85354B1B6803F47F431B0AFB737B6897
:10489000DB8D9AB2FB7B9BB213439AB27B68DA85BD
:1048A0002D4B1B68FB73FB7B1B061A467B681A6348
:1048B000294B5B681B0EFB737B681A6BFB7B1B042D
:1048C0001A437B681A63244B5B6803F47F031B0C59
:1048D000FB737B681A6BFB7B1B021A437B681A63B2
:1048E0001D4B5B6803F47F431B0AFB737B681A6BE9
:1048F000FB7B1A437B681A63174B5B68FB737B680F
:10490000FA7B83F83420144B9B681B0EFB737B6887
:10491000FA7B83F83520104B9B6803F47F031B0C54
:10492000FB73FB7B1B061A467B689A630A4B9B68EA
:1049300003F47F431B0AFB737B689A6BFB7B1B04AE
:104940001A437B689A63044B9B68FB737B6805E0A2
:104950005CE9002060E9002070E900209A6BFB7B95
:104960001B021A437B689A63234BDB681B0EFB73A5
:104970007B689A6BFB7B1A437B689A631E4BDB68F0
:1049800003F47F031B0CFB737B6893F83C30DAB2B3
:10499000FB7B1B09DBB21343DAB27B6883F83C2054
:1049A000FB7B9BB203F00F039BB21B029AB27B68A6
:1049B000DA87114BDB6803F47F431B0AFB737B68C8
:1049C000DB8F9AB2FB7B9BB213439AB27B68DA8788
:1049D000094BDB68FB73FB7B5B08DAB27B6883F80F
:1049E00040207B68012283F84120BB7B18461437A6
:1049F000BD465DF8047B704770E9002080B584B047
:104A000000AF78600023FB73304B1B68032B03D18E
:104A10002723FB73FB7B54E02C4B1B68002B07D038
:104A20002A4B1B68012B03D0284B1B68022B47D154
:104A30007B68B3F5805F03D12723FB73FB7B40E0EA
:104A40007B68B3F5006F1ED1012000F05BFD0346CB
:104A5000FB73FB7B002B33D11D4B01221A751C4BC2
:104A600000221A601A4B00225A60194B00229A60E9
:104A7000174B4FF40062DA60154B00221A6114489C
:104A8000FCF766F81CE0002000F03CFD0346FB73D9
:104A9000FB7B002B14D10E4B01221A750C4B00220C
:104AA0001A600B4B00225A60094B00229A60084B97
:104AB0000022DA60064B00221A610548FCF748F82C
:104AC000FB7B18461037BD4680BD00BF5CE9002067
:104AD00060F4002080B584B000AF78600023FB73E1
:104AE0000E4B7A681A600D4B07225A600B4B40221E
:104AF0009A600A4B0022DA60084B4FF480621A6118
:104B00000648FCF77FF8072000F06AFB0346FB73BA
:104B1000FB7B18461037BD4680BD00BFFCF300206C
:104B200080B586B000AFF860B9603B601346FB808B
:104B30000023FB753E4B00221A703E4B00221A6088
:104B40003D4B01221A603D4B0022DA623C4B1B6850
:104B5000022B05D14FF40073FB80BB685B0ABB607E
:104B6000FA88384B1A60374B10225A60354B402276
:104B70009A60344B0022DA60324B4FF480621A6143
:104B80003048FCF73FF8102000F02AFB0346FB7585
:104B9000FB7D002B01D0FB7D46E02B4B4FF0FF321D
:104BA0001A60FB883A6802FB03F2274B5A60264BD7
:104BB00090229A60244B0222DA60234B00221A6171
:104BC000214B01225A612048FCF768F81D4BBA6856
:104BD0001A601C4B12225A601A4B40229A60194BE1
:104BE0000022DA60174B4FF480621A611548FCF717
:104BF00009F8122000F0F4FA0346FB75FB7D002B48
:104C000001D0FB7D10E040F22A300121FCF790F842
:104C10000120FCF77DF8FB883A6802FB03F3F86893
:104C2000194601F095FEFB7D18461837BD4680BD3C
:104C300098E900209CE9002094E90020002C014024
:104C40005CE90020FCF3002078F4002080B582B0FD
:104C500000AF0023FB714FF0FF333B6002E03B6885
:104C6000013B3B60224B1B68002B0BD1214B1B6887
:104C7000002B07D1204B1B78DBB2002B02D13B6805
:104C8000002BECD11A4B00221A604FF0FF333B602F
:104C900002E03B68013B3B60184B5B6B03F4005345
:104CA000002B02D03B68002BF3D1154B1B68012B66
:104CB00003D100F057F90346FB713B68002B04D188
:104CC000FB79002B01D10423FB7140F2FF50FCF76C
:104CD00067F8094B1B78DBB2002B03D0064B1B781F
:104CE000DBB200E0FB7918460837BD4680BD00BF47
:104CF000A0E900209CE9002098E90020002C014058
:104D000094E9002080B586B000AFF860B9603B60E0
:104D10001346FB800023FB755C4B00221A705C4B32
:104D200000221A605B4B01221A605B4B0022DA62A0
:104D30005A4B1B68022B05D14FF40073FB80BB68F4
:104D40005B0ABB60FA88564B1A60554B10225A60BA
:104D5000534B40229A60524B0022DA60504B4FF482
:104D600080621A614E48FBF74DFF102000F038FAC0
:104D70000346FB75FB7D002B01D0FB7D82E0494B98
:104D80001B681A04464B1A60454B37225A60444B45
:104D900040229A60424B0022DA60414B4FF480621D
:104DA0001A613F48FBF72EFF372000F019FA03463F
:104DB000FB75FB7D002B01D0FB7D63E0384B3A682F
:104DC0001A60374B17225A60354B40229A60344B99
:104DD0000022DA60324B4FF480621A613048FBF7F0
:104DE00011FF172000F0FCF90346FB75FB7D002B3B
:104DF00001D0FB7D46E02A4BBA681A60284B192285
:104E00005A60274B40229A60254B0022DA60244BDF
:104E10004FF480621A612248FBF7F4FE192000F07B
:104E2000DFF90346FB75FB7D002B01D0FB7D29E0FC
:104E30001D4B4FF0FF321A60FB883A6802FB03F209
:104E4000194B5A60184B90229A60174B0022DA6077
:104E5000154B00221A61144B01225A611248FBF7CC
:104E60001DFF40F22A300121FBF762FF0120FBF712
:104E70004FFFFB883A6802FB03F3F868194601F01C
:104E800017FDFB7D18461837BD4680BD98E9002008
:104E90009CE9002094E90020002C01405CE90020FE
:104EA000FCF3002080E9002078F4002080B582B077
:104EB00000AF0023FB714FF0FF333B6002E03B6823
:104EC000013B3B60224B1B68002B0BD1214B1B6825
:104ED000002B07D1204B1B78DBB2002B02D13B68A3
:104EE000002BECD11A4B00221A604FF0FF333B60CD
:104EF00002E03B68013B3B60184B5B6B03F4805363
:104F0000002B02D03B68002BF3D1154B1B68012B03
:104F100003D100F027F80346FB713B68002B04D156
:104F2000FB79002B01D10423FB7140F2FF50FBF70A
:104F300037FF094B1B78DBB2002B03D0064B1B78E5
:104F4000DBB200E0FB7918460837BD4680BD00BFE4
:104F5000A0E900209CE9002098E90020002C0140F5
:104F600094E9002080B582B000AF0023FB710E4BA6
:104F700000221A600C4B0C225A600B4B40229A60A4
:104F8000094B0022DA60084B4FF480621A61064830
:104F9000FBF738FE0C2000F023F90346FB71FB7988
:104FA00018460837BD4680BDFCF3002080B584B0AC
:104FB00000AF78600023FB737B68002B03D12623AE
:104FC000FB73FB7B25E0154B1B681A04144B1A601E
:104FD000134B0D225A60124B40229A60104B002254
:104FE000DA600F4B4FF480621A610D48FBF70AFE3E
:104FF0000D2000F0F5F80346FB73FB7B002B01D07E
:10500000FB7B06E00020FBF735FE02467B681A605A
:10501000FB7B18461037BD4680BD00BF80E90020ED
:10502000FCF3002080B500AF4FF48070FBF7C6FEA4
:105030000346002B0AD02B4B00221A704FF48070CD
:10504000FBF7D6FE284B01221A6041E00220FBF755
:10505000B5FE0346002B06D00220FBF7C9FE214B0C
:1050600002221A7034E00820FBF7A8FE0346002B4A
:1050700006D00820FBF7BCFE1A4B04221A7027E06A
:105080002020FBF79BFE0346002B06D02020FBF7D9
:10509000AFFE144B06221A701AE01020FBF78EFEAA
:1050A0000346002B06D01020FBF7A2FE0D4B052275
:1050B0001A700DE04FF40070FBF780FE0346002BE2
:1050C00006D04FF40070FBF793FE064B07221A70D0
:1050D0004CF23A300021FBF72BFE024B1B78DBB27F
:1050E000184680BD98E900209CE9002080B500AFFB
:1050F000074B1B6803F0C053002B07D0054B012260
:105100001A6005484FF0C2510CF0EEFC80BD00BFA4
:1051100000640240A0E900205864024080B582B0DB
:1051200000AF0023FB704FF480337B6002E07B68AC
:10513000013B7B607B68002B05D08020FBF716FECF
:105140000346002BF3D07B68002B03D10323FB70B5
:10515000FB7804E040F2FF50FBF722FEFB78184694
:105160000837BD4680BD00BF80B584B000AF0023C6
:10517000FB714FF48033BB60184B5B6BFB6005E049
:10518000BB68013BBB60154B5B6BFB60FB6803F0CE
:105190004503002B02D1BB68002BF1D1BB68002B6B
:1051A00004D0FB6803F00403002B06D00323FB713B
:1051B0000420FBF7F5FDFB790CE0FB6803F04003EE
:1051C000002B06D00023FB714020FBF7E9FDFB79A3
:1051D00000E0FB7918461037BD4680BD002C014029
:1051E00080B586B000AF0346FB710023FB74624BB1
:1051F0005B6B7B6102E0604B5B6B7B617B6903F007
:105200004503002BF7D07B6903F00403002B06D085
:105210000323FB740420FBF7C3FDFB7CA8E07B6940
:1052200003F00103002B06D00123FB740120FBF7E0
:10523000B7FDFB7C9CE0FBF711FD0346FA799A422F
:1052400003D01023FB74FB7C92E040F2FF50FBF78D
:10525000A7FD0020FBF70EFDF860FA68474B1340EE
:10526000002B01D1FB7C83E0FB68002B01DA1C23BF
:105270007EE0FB6803F08043002B01D0092377E038
:10528000FB6803F00053002B01D00A2370E0FB6899
:1052900003F08053002B01D00B2369E0FB6803F07F
:1052A0000063002B01D00C2362E0FB6803F08063F5
:1052B000002B01D00D235BE0FB6803F08073002B13
:1052C00001D00E2354E0FB6803F40003002B01D04F
:1052D0000F234DE0FB6803F48003002B01D0102363
:1052E00046E0FB6803F40013002B01D011233FE0DC
:1052F000FB6803F48013002B01D0122338E0FB6815
:1053000003F40023002B01D0132331E0FB6803F4E6
:105310008023002B01D014232AE0FB6803F4003320
:10532000002B01D0152323E0FB6803F48033002B0E
:1053300001D016231CE0FB6803F40043002B01D0CE
:10534000172315E0FB6803F48043002B01D01823DA
:105350000EE0FB6803F40053002B01D0192307E093
:10536000FB6803F00803002B01D01A2300E0FB7C4C
:1053700018461837BD4680BD002C014008E0FFFDEF
:1053800080B582B000AF0023FB70104B5B6B7B607D
:1053900002E00E4B5B6B7B607B6803F04503002BE8
:1053A000F7D07B6803F00403002B06D00323FB70C7
:1053B0000420FBF7F5FCFB7804E040F2FF50FBF71C
:1053C000EFFCFB7818460837BD4680BD002C014035
:1053D00080B582B000AF0023FB70164B5B6B7B6027
:1053E00002E0144B5B6B7B607B6803F04503002B92
:1053F000F7D07B6803F00403002B06D00323FB7077
:105400000420FBF7CDFCFB7810E07B6803F0010380
:10541000002B06D00123FB700120FBF7C1FCFB78B9
:1054200004E040F2FF50FBF7BBFCFB78184608375E
:10543000BD4680BD002C014080B586B000AF03465C
:105440003960FB710023FB742D4B5B6B7B6102E0C9
:105450002B4B5B6B7B617B6903F04503002BF7D023
:105460007B6903F00403002B06D00323FB740420A4
:10547000FBF796FCFB7C3FE07B6903F00103002B0C
:1054800006D00123FB740120FBF78AFCFB7C33E090
:10549000FBF7E4FB0346FA799A4203D01023FB742E
:1054A000FB7C29E040F2FF50FBF77AFC0020FBF781
:1054B000E1FBF860FB6803F46043002B06D1FB6856
:1054C0001B0C9AB23B681A80FB7C15E0FB6803F466
:1054D0000053002B01D013230EE0FB6803F480433C
:1054E000002B01D0102307E0FB6803F40043002BDE
:1054F00001D00F2300E0FB7C18461837BD4680BD65
:10550000002C014080B586B000AF0346FB7100233C
:10551000FB750023FB6000233B610020FBF7AAFB27
:10552000034603F00073002B03D00E23FB75FB7DB5
:105530009FE0524B1B689AB207F10C0310461946C4
:1055400000F0A0F80346FB75FB7D002B01D0FB7D2E
:105550008FE0FB79012B46D13B6903F48023002BBC
:105560003DD0464B1B681A04454B1A60444B37220A
:105570005A60434B40229A60414B0022DA60404B14
:105580004FF480621A613E48FBF73CFB3720FFF77F
:1055900027FE0346FB75FB7D002B01D0FB7D68E0F9
:1055A000374B02221A60364B06225A60344B402297
:1055B0009A60334B0022DA60314B4FF480621A61FB
:1055C0002F48FBF71FFB0620FFF70AFE0346FB757B
:1055D000FB7D002B01D0FB7D4BE0FB7D49E02523CB
:1055E000FB75FB7D45E03B6903F48033002B3DD028
:1055F000224B1B681A04224B1A60214B37225A6037
:105600001F4B40229A601E4B0022DA601C4B4FF465
:1056100080621A611A48FBF7F5FA3720FFF7E0FDC0
:105620000346FB75FB7D002B01D0FB7D21E0144B75
:1056300000221A60124B06225A60114B40229A60D7
:105640000F4B0022DA600E4B4FF480621A610C4857
:10565000FBF7D8FA0620FFF7C3FD0346FB75FB7D79
:10566000002B01D0FB7D04E0FB7D02E02523FB75D0
:10567000FB7D18461837BD4680BD00BF80E900207D
:10568000FCF3002090B587B000AF03463960FB8083
:1056900000237B610023FB740023BB600023FB60BD
:1056A000754B08221A60744B10225A60724B4022CC
:1056B0009A60714B0022DA606F4B4FF480621A617E
:1056C0006D48FBF79FFA1020FFF78AFD0346FB7435
:1056D000FB7C002B01D0FB7CCAE0684B1B681A04E2
:1056E000654B1A60644B37225A60634B40229A60C4
:1056F000614B0022DA60604B4FF480621A615E48B1
:10570000FBF780FA3720FFF76BFD0346FB74FB7C49
:10571000002B01D0FB7CABE0594B4FF0FF321A60FD
:10572000574B08225A60564B30229A60544B022243
:10573000DA60534B00221A61514B01225A615048E2
:10574000FBF7ACFA4C4B00221A604B4B33225A60E9
:10575000494B40229A60484B0022DA60464B4FF496
:1057600080621A614448FBF74DFA3320FFF738FD99
:105770000346FB74FB7C002B01D0FB7C78E012E03D
:105780004FF40010FBF7F2FA0346002B0BD07B69B5
:105790009B0007F10802D418FBF7AEFA034623601A
:1057A0007B6901337B61374B5A6B40F22A631340AC
:1057B000002BE5D00820FBF7D9FA0346002B06D0D2
:1057C0000820FBF7EDFA0423FB74FB7C50E0022079
:1057D000FBF7CCFA0346002B06D00220FBF7E0FAD9
:1057E0000223FB74FB7C43E02020FBF7BFFA034657
:1057F000002B06D02020FBF7D3FA0623FB74FB7C9A
:1058000036E04FF40070FBF7B1FA0346002B07D0E7
:105810004FF40070FBF7C4FA0723FB74FB7C27E00E
:1058200040F2FF50FBF7BCFA3B680433BA6811063C
:10583000BA6802F47F4212021143BA6802F47F028E
:10584000120A1143BA68120E0A431A60FB681A065C
:10585000FB6803F47F431B021A43FB6803F47F03D6
:105860001B0A1A43FB681B0E1A433B681A60FB7C39
:1058700018461C37BD4690BDFCF3002080E900208F
:1058800078F40020002C014080B400AFBD465DF8E4
:10589000047B704780B584B000AF78600123FB7350
:1058A000FB7B002B10D07B685B6A1B7A002B03D03C
:1058B000786800F0C5F80AE0786800F071F87B6855
:1058C0005B6A64221A7202E0786800F0B9F8103757
:1058D000BD4680BD80B584B000AF786039607B681C
:1058E00093F82F301A467B6893F830301B021A4326
:1058F000174B134418460AF08DF8034618460AF071
:10590000A3F8F8607B685B6A5B7AFA681344FB6013
:10591000FB689BB243F0294343F47E03FB60FA68C3
:105920000C4B9A4203D8FB6803F57E43FB60FA6890
:10593000094B9A4203D9FB68A3F57E43FB60F868E4
:105940000AF068F802463B681A601037BD4680BD11
:105950000001FEA9FF00FEA9FFFEFEA980B586B0EA
:1059600004AF78607B6803F12B027B682B33796886
:10597000496A08480090084801900291012103916A
:1059800078681146054A07F025FE03461846083791
:10599000BD4680BD50B1020890DB020888DB0208DA
:1059A00080B586B004AF78607B6803F12B027B681A
:1059B0002B337968496A08467968496A0090074834
:1059C000019002910121039178681146044A07F081
:1059D00001FE034618460837BD4680BD90DB02082D
:1059E00088DB020880B586B000AF78607B685B6AB0
:1059F0007B6112480AF00EF803463B6100200AF072
:105A000009F80346FB607B69786819460AF07CFA5E
:105A100007F11003786819460AF0E0FA07F10C0361
:105A2000786819460AF0C6FA78680AF0F9FA00238D
:105A30005BB218461837BD4680BD00BF0000FFFFAF
:105A400080B584B000AF78607B685B6AFB60002340
:105A5000FB7278680AF022FB0346002B02D07868BC
:105A60000AF002FB7B6800225A607B6800229A6081
:105A70007B680022DA60FB68002B11D10A20FAF75C
:105A800073FEF860FB68002B01D1FF2329E0F86862
:105A900000210A2214F0AEF87B68FA685A6211E01D
:105AA000FB6800221A71FB680022DA80FB68002282
:105AB0005A71FB6818460021042214F09BF8FB6819
:105AC00000221A72FB6878681946FFF703FFFB682B
:105AD0005B7A0133DAB2FB685A72786800F006F834
